:1000000013C022C021C020C01FC01EC01DC01CC004
:100010001BC01AC019C018C017C016C015C014C024
:1000200013C012C011C010C011241FBECFEFD2E008
:10003000DEBFCDBF21E0A0E0B1E001C01D92A43140
:10004000B207E1F7DDD02DC1DBCF95E090937C00C6
:10005000459A48B121E030E0082E01C0220F0A94F1
:10006000EAF7922F9095492348B947B1522F506231
:10007000452B47B947E04A95F1F7000047B14923BE
:1000800047B9806280937C0040917A00406440933D
:100090007A0040917A0044FFFCCF30917A003061C1
:1000A00030937A003091790045E040937C00459888
:1000B00048B1242B28B927B1252B27B927E02A9549
:1000C000F1F7000027B1292327B928B1922398B965
:1000D00080937C0080917A00806480937A00809184
:1000E0007A0084FFFCCF80917A00806180937A004F
:1000F00080917900831B0895EF92FF920F931F93D5
:10010000CF930AE011E080E0E82E81E0F82EC0E015
:100110008C2F9BDFF801108281830E5F1F4FF70148
:1001200011927F01CF5FC53099F7CF911F910F9149
:10013000FF90EF900895FF920F931F93CF93DF935B
:10014000F82E10E1C0E0D0E08F2D7FDFC80FD11D69
:1001500081E28A95F1F700001150B1F72F2D30E0C0
:100160008901000F111F065F1E4FF8014081518168
:10017000CA0164E0969587956A95E1F7BE01681B10
:10018000790BF901E050FF4F808181111DC0633070
:10019000710544F081E08083F901EB5FFE4F10822E
:1001A00082E028C09A0196E0369527959A95E1F766
:1001B000421B530BD695C795D695C795C40FD51F2F
:1001C000F801D183C08316C0161617061CF01082E2
:1001D00083E010C0F901EB5FFE4F90819F3F39F43F
:1001E0008F2D33DFF8011082818384E003C09F5F8D
:1001F000908381E0DF91CF911F910F91FF9008953F
:10020000CF93DF931F92CDB7DEB7809164008E7FCE
:100210008093640083E880937A006EDF80E28AB97D
:10022000198280E8B82ECC24C394D12C28E0A22EC9
:100230005D9AB092610010926100809164008E7F9F
:100240008093640000E010E07601002E01C0EE0C07
:100250000A94EAF7EAB8802F6EDF898389818111D9
:1002600003C08BB1E82A06C08981813021F48BB1AB
:10027000E094E822EBB80F5F1F4F0530110521F71E
:10028000809164008160809364005D98B092610009
:10029000A09261008DEE92E00197F1F700C000009E
:0602A000C7CFF894FFCF68
:00000001FF
